:10000000E3EF09F0000000002DEF0BF0000000000E
:0C0010000000000000000000C5EF0CF034
:0A001C00530E0D6E0D2EFED71200DC
:10002600240E0C6EB50E0D6E0D2EFED70C2EFCD7C3
:06003600000000001200B2
:0C003C00000000000000000000001200A6
:100048000B820BAE2EEF00F00368026801680068AF
:080058000A360232FF0E12000D
:0E006000026A016A006A086A036A000E120052
:10006E000001FDBF02D08D9201D08D82FDBD02D068
:10007E008D9001D08D80FDBB02D0899A01D0898AE6
:10008E00FDB902D0899801D08988E0B102D089806B
:10009E0001D089908984CBDF8994FDB702D08D92EF
:1000AE0001D08D82FDB502D08D9001D08D80FDB333
:1000BE0002D0899A01D0898AFDB102D0899801D0E7
:1000CE008988E0B102D0898001D089908984AFDF20
:0E00DE008994E0A102D0A0DF01D099DF1200CA
:1000EC000B840BAE81EF00F0010E036E026A016A05
:0A00FC00006A0A360232FF0E1200FD
:080106000AAE029E000E120079
:0E010E000001E091FCC0FDF0ABDFE0811200CB
:10011C00086A096A100E0C6E013408360936045050
:10012C00085E0550D8A0053C095ED8B007D0045035
:10013C0008260550D8B0053C0926D8900036013663
:06014C000C2EEAD71200A0
:10015200086A080E0C6E003408360450085ED8B0E7
:0E01620002D00826D89000360C2EF5D71200D9
:100170000CB0FAEF00F00CA2A0EF01F00E6A000E36
:10018000026411EF01F0F00E0214D8A4DCEF00F0CD
:10019000023A01380F0B02260138F00B016E0038CD
:1001A0000F0B01260038F00B006E08380F0B0026ED
:1001B0000838F00B086E0E84D89002BEF5EF00F000
:1001C00008360036013602360E2A02BEF5EF00F080
:1001D00008360036013602360E2A02BEF5EF00F070
:1001E00008360036013602360E2A0E50036496EFAA
:1001F00001F0035E0BBC08AE9BEF01F0D880800ECF
:1002000008640030000E002201220222D8A09BEFD9
:1002100001F0023201320032034AA0EF01F09BEFFD
:1002200001F001C002F000C001F008C000F0086A4F
:10023000000E0E86026448EF01F0F00E0214D8A4FE
:1002400030EF01F0023A01380F0B02260138F00BB3
:10025000016E00380F0B01260038F00B006E0E8483
:10026000D89002BEF5EF00F00036013602360E2AB5
:1002700002BEF5EF00F00036013602360E2A02BE4D
:10028000F5EF00F00036013602360E2AF5EF00F0E9
:1002900001C002F000C001F0006A000E0E960E8848
:1002A000026475EF01F0F00E0214D8A460EF01F0C3
:1002B000023A01380F0B02260138F00B016E0E8452
:1002C000D89002BEF5EF00F0013602360E2A02BECB
:1002D000F5EF00F0013602360E2A02BEF5EF00F00F
:1002E000013602360E2AF5EF00F001C002F0016A75
:1002F000000E0E860264A5EF01F0F00E0214D8A4E1
:1003000084EF01F0023A0E84D89002BEF5EF00F0BF
:1003100002360E2A02BEF5EF00F002360E2A02BEA9
:10032000F5EF00F002360E2AF5EF00F0010E0C6E2C
:10033000DDDEA8EF01F0020E0C6EE5DEA8EF01F0A5
:10034000040E0C6E81DEA8EF01F0080E0C6E88DE44
:02035000120099
:100352000B6A0A6A096A00500402F4CF09F0F3CF6B
:1003620008F001500502F4CF0BF0F3CF0AF0005071
:100372000502F3500926F4500A22E86A0B220150C2
:100382000402F3500926F4500A22E86A0B2208C03C
:1003920000F009C001F00AC002F00BC003F0120025
:1003A2000B800BAEDDEF01F0026A0AAEFF0E026EA9
:0C03B200016E006E0A360232FF0E1200CF
:1003BE000B6A0C6A0A6A0350D8B414EF02F00A9E54
:1003CE00028E860E035E03BEF2EF01F0D8B4F2EF9A
:1003DE0001F017EF02F0036C080E035CD8A000EFDB
:1003EE0002F0036E0236026A0350D8A4D89009EFC9
:1003FE0002F00350D8B409EF02F0D8900232032E67
:10040E0004EF02F00BBC02A014EF02F0D8A014EF20
:10041E0002F0022AD8B41EEF02F0016A23EF02F0B6
:10042E000B800BAE27EF02F0016A27EF02F0010EF0
:10043E000C6EB0DF29EF02F0000E0C6E29EF02F009
:0A044E00FF0E0C6E0250006E12004B
:100458000001F96B050EF95D0AE2F951F725E16E25
:10046800000EF821E26E200EE66EF92BF3D7F95153
:10047800F725E16E000EF821E26EE66AF907F951F8
:10048800F725FA6F000EF821FB6F0A0E046E000EB6
:10049800056EF5C000F0F6C001F03CDE08C000F0C3
:1004A80009C001F0300E0026FAC0E1FFFBC0E2FFF0
:1004B80000C0E6FF0A0E046E000E056EF5C000F0DF
:1004C800F6C001F027DE00C0F5F001C0F6F0000E1E
:1004D800011802E1000E001801E102D0F907CFD798
:0204E800120000
:1004EA007E6A7F6A800E7F18006E800E090A005CA1
:1004FA0002E1C40E7E5C0AE2F00E8314016E015022
:10050A00F00A01E1EDD77E4A7F2AECD7F00E831478
:10051A000001CF6FF00E8314016E0150F00A01E062
:10052A00F9D77E6A7F6A800E7F18006E800E090AEC
:10053A00005C02E1C40E7E5C0AE2F00E8314016ED6
:10054A000150F00A01E0EDD77E4A7F2AECD712006B
:10055A000C6A0E6A0250D8A4C6EF02F001C002F07B
:10056A0000C001F0006A0E860250D8A4C6EF02F05D
:10057A0001C002F0016A0E960E880250D8B4D8EF74
:10058A0002F00E50035ED8A4D8A0DDEF02F0D89096
:10059A0002BEE2EF02F0003601360236032ECDEF3C
:1005AA0002F0DDEF02F0010E0C6E55DDE5EF02F010
:1005BA00020E0C6E96DDE5EF02F0040E0C6E9EDD67
:0205CA0012001D
:1005CC00025006180E6E086A096A0B6A035007641B
:1005DC00D9EF03F006500A6E068E028E03500B6E96
:1005EC000750036E000E0B6429EF03F00B50075EEF
:1005FC00D8B4CAEF03F0070E076498EF03F0075E58
:10060C0000C008F001C000F002C001F0026A074E01
:10061C00CAEF03F007646DEF03F0075E00C008F04B
:10062C0001C000F0016A074ECAEF03F007644BEFFC
:10063C0003F0075E00C008F0006A074ECAEF03F033
:10064C00076432EF03F00AC002F005C001F004C0E9
:10065C0000F0086AF6EF04F0030E07643DEF03F0B8
:10066C00075E08380F0B086E074ECAEF03F0D890E0
:10067C000832074ECAEF03F0D8900832074ECAEF83
:10068C0003F0D8900832CAEF03F0030E07645CEF56
:10069C0003F0075E08380F0B086E0038F00B0826C5
:1006AC0000380F0B006E074ECAEF03F0D8900032E3
:1006BC000832074ECAEF03F0D89000320832074ECA
:1006CC00CAEF03F0D89000320832CAEF03F0030EE1
:1006DC00076484EF03F0075E08380F0B086E0038D0
:1006EC00F00B082600380F0B006E0138F00B0026BB
:1006FC0001380F0B016E074ECAEF03F0D890013290
:10070C0000320832074ECAEF03F0D89001320032A3
:10071C000832074ECAEF03F0D8900132003208328B
:10072C00CAEF03F0030E0764B5EF03F0075E083859
:10073C000F0B086E0038F00B082600380F0B006EFC
:10074C000138F00B002601380F0B016E0238F00B4C
:10075C00012602380F0B026E074ECAEF03F0D89039
:10076C000232013200320832074ECAEF03F0D89041
:10077C000232013200320832074ECAEF03F0D89031
:10078C000232013200320832096A000E0EAEBEEFA0
:10079C0004F0081E001E011E021E082A002201225F
:1007AC000222BEEF04F00750D8A4DFEF03F0F6EFFF
:1007BC0004F0096A02C00AF0028E068E0750035C30
:1007CC00076ED8B4B1EF04F0070E07647FEF04F0A6
:1007DC00075E0450096E0550046E0650056E066ADD
:1007EC00074EB1EF04F0070E076454EF04F0075EF8
:1007FC000450096E0550046E056A074EB1EF04F003
:10080C00070E076432EF04F0075E0450096E046AA9
:10081C00074EB1EF04F0070E076419EF04F00AC09D
:10082C0002F0F6EF04F0030E076424EF04F0075E09
:10083C0009380F0B096E074EB1EF04F0D89009324E
:10084C00074EB1EF04F0D8900932074EB1EF04F027
:10085C00D8900932B1EF04F0030E076443EF04F0B3
:10086C00075E09380F0B096E0438F00B09260438A3
:10087C000F0B046E074EB1EF04F0D890043209321E
:10088C00074EB1EF04F0D89004320932074EB1EFA5
:10089C0004F0D89004320932B1EF04F0030E07646F
:1008AC006BEF04F0075E09380F0B096E0438F00B80
:1008BC00092604380F0B046E0538F00B0426053896
:1008CC000F0B056E074EB1EF04F0D89005320432D1
:1008DC000932074EB1EF04F0D890053204320932D8
:1008EC00074EB1EF04F0D890053204320932B1EF63
:1008FC0004F0030E07649CEF04F0075E09380F0B3D
:10090C00096E0438F00B092604380F0B046E0538F9
:10091C00F00B042605380F0B056E0638F00B052678
:10092C0006380F0B066E074EB1EF04F0D890063266
:10093C00053204320932074EB1EF04F0D89006327A
:10094C00053204320932074EB1EF04F0D89006326A
:10095C00053204320932086A000E0EAEBEEF04F006
:10096C00091E041E051E061E092A04220522062243
:10097C00095008260450002205500122065002227C
:10098C000EBED5EF04F0D8A0E4EF04F00232013231
:10099C0000320832033EE4EF04F0F0EF04F0D8B07C
:1009AC00EAEF04F0000E081E001E011E021E082AAB
:1009BC000022012202220A7EEAEF04F0010E0C6EE4
:1009CC00B8EC00F0F8EF04F0020E0C6EB8EC00F08E
:1009DC00F8EF04F0040E0C6E24EC00F0F8EF04F0C9
:0609EC00000E0C6E12006B
:1009F2000001F86B030EF85D0AE2F851F625E16E8C
:100A0200000EF721E26E200EE66EF82BF3D7F851B6
:100A1200F625E16E000EF721E26EE66AF807F8515C
:100A2200F625F96F000EF721FA6F0A0E046EF5C073
:100A320000F0A9EC00F008C000F0300E0026F9C06A
:100A4200E1FFFAC0E2FF00C0E6FF0A0E046EF5C045
:100A520000F0A9EC00F000C0F5F00050000A01E13E
:080A620002D0F807DCD71200F6
:0A0A6A009494CA840C0EBD12120011
:0E0A7400ACB202D00000FCD7F5C0ADFF1200FE
:100A8200CB50010F006E016A000E0122F5C004F086
:100A9200000E056E5DDC060E026E00C004F001C0A1
:100AA20005F0025005E005320432059EFF0FFAD729
:100AB200040E016E04C000F0015004E00036009004
:100AC200FF0FFBD7300E0014036E04C000F005C008
:100AD20001F001320032019E01320032019E00C05B
:0C0AE200BEFF0F0EBD160350BD12120027
:100AEE0010D0800E0001F56F1AD0C00EF56F17D022
:100AFE00940EF56F14D0D40EF56F11D0800EF56FE5
:100B0E000ED00001F551010AECE0F551020AEDE0BC
:100B1E00F551030AEDE0F551040AEDE0EFD7F605C5
:100B2E00006EF551002600C0F5F000C0FDF037EC68
:100B3E0000F0E091F96BF951F725E96E000EF821FE
:100B4E00EA6EEE520CE0F951F725E96E000EF8212F
:100B5E00EA6EEECFFCF087EC00F0F92BECD7E081DB
:020B6E00120073
:100B70000B6A0350D8B4FEEF05F002500A6E028EE5
:100B80008E0E035E03AE02EF06F0036C080E035CEC
:100B9000D8A0DDEF05F0036E013602C001F0026A55
:100BA000080E035CD8A0DDEF05F0036E0136016A84
:100BB0000350D8A4D890E7EF05F00350D8B4E7EF7E
:100BC00005F0D89002320132032EE1EF05F00BBCA4
:100BD00001A0F4EF05F0D8A0F4EF05F0012AD8B495
:100BE000022A02BE11EF06F00AAE17EF06F0021E4F
:100BF000011E012AD8B4022A17EF06F0026A016A20
:100C000017EF06F00B800BAE1BEF06F0026A0AAE80
:100C10001BEF06F0FF0E026E016E0A3602321BEF6A
:100C200006F0010E0C6ED1EC01F01DEF06F0000E87
:100C30000C6E1DEF06F0FF0E0C6E0150006E0250A0
:040C4000016E12002F
:100C440000C008F00150006E016A026A036A0B6A70
:100C54000C6A016A026A036A960E036E0A6A00AE9F
:100C64003AEF06F0081E001E082AD8B4002A0A8E9D
:100C740000C001F008C000F0086A026A6CDC1200CF
:100C8400086A096A000E07620364C7EF06F002509F
:100C940006180A6E075003267E0ED8A058EF06F0F9
:100CA400035ED8B0CCEF06F05CEF06F0035ED8A08C
:100CB400D1EF06F0028E068E02C00EF001C00BF0DA
:100CC40000C00DF000500402F4CF0CF001500502F6
:100CD400F4CF00F0F3CF08F00402F3500C26F450E4
:100CE4000822000E00220D500502F3500C26F45089
:100CF4000822000E002202500402F3500826F45089
:100D0400002202500502016A000E0122F35000265F
:100D1400F45001220D500602F3500826F45000222C
:100D2400026A000E012202220B500602F350002632
:100D3400F4500122000E02220E500602F350012646
:100D4400F450022202BEAFEF06F008360036013638
:100D540002360306D8B4D1EF06F0C2EF06F0D8800D
:100D6400800E08640030000E002201220222D8A066
:100D7400C2EF06F0023201320032034ACCEF06F031
:100D84000AAE029E000ED4EF06F0010E30EC00F025
:100D9400D4EF06F0020E24EC00F0D4EF06F0040EBB
:060DA40076EC00F01200E5
:060DAA00067E0FDC1200C2
:100DB0000A6A0350D8A40A800750D8A40A820A50AD
:100DC000D8B43BEF07F0030AD8B4F4EF06F00AB04A
:100DD000EFEF06F006AE39EF07F037EF07F002AE9F
:100DE00037EF07F039EF07F00250800B0A6E029ED2
:100DF0000650800B069E0A18D8B405EF07F00A507B
:100E0000D8B437EF07F039EF07F00750035CD8B4D8
:100E10000FEF07F0D8A02BEF07F031EF07F00650E7
:100E2000025CD8B419EF07F0D8A02BEF07F031EF30
:100E300007F00550015CD8B423EF07F0D8A02BEFE2
:100E400007F031EF07F00450005CD8B43BEF07F037
:100E5000D8B031EF07F00A52D8B439EF07F037EFC6
:100E600007F00A52D8B437EF07F039EF07F0D8800F
:0E0E70001200D8901200D880D8841200120010
:100E7E00740E0001ED6F0A0EEE6FF50EEF6F000EA1
:100E8E00F06F760EE96F130EEA6F000EEB6F000E29
:100E9E00EC6FFF0EE16FFF0EE26F000EE36F000EC0
:100EAE00E46FFF0EE56FFF0EE66F000EE76F000EAC
:100EBE00E86FAC8A900EAB6E948E949C9EAA03D073
:080ECE00AECF00F0FBD71200CB
:080ED6009484F00EBD16120019
:100EDE00929492909298929A9690969289948990E2
:100EEE008D928D90899A899813EC00F013EC00F096
:100EFE0013EC00F0898A898889841EEC00F08994AD
:100F0E0013EC00F089841EEC00F0899413EC00F0D1
:100F1E0089841EEC00F0899413EC00F08998898482
:100F2E001EEC00F0899413EC00F089841EEC00F0A6
:100F3E008994899A8D8289841EEC00F0899413EC31
:100F4E0000F08D92898889841EEC00F0899489982E
:100F5E0089841EEC00F0899413EC00F089841EEC59
:100F6E0000F08994898889841EEC00F0899413EC32
:100F7E0000F0899889841EEC00F089948D828D8012
:100F8E00898A898889841EEC00F0899413EC00F01C
:060F9E000001E0811200D9
:100FA4000900F5CFE6FF0006FBE10106F9E11200B6
:100FB400B8C0F5F0D10E0001F66F000EF76F17DD23
:100FC400BAC0F5F0D60EF66F000EF76F10DDBCC098
:100FD400F5F0DA0EF66F000EF76F09DD010EF56F0E
:100FE400040EF66FD10EF76F000EF86F7EDD010E62
:100FF400F56F080EF66FD60EF76F000EF86F75DDFD
:10100400010EF56F0C0EF66FDA0EF76F000EF86F27
:101014006CDD010EF56F010EF66F930EF76F000E87
:08102400F86F63DDC26B1200DE
:10102C008C868C90F00E8314016E0150F00A04E053
:10103C0075EC02F00001CF818C808C92F00E831441
:10104C00016E0150F00A04E075EC02F00001CF8350
:10105C008C828C94F00E8314016E0150F00A04E023
:10106C0075EC02F00001CF858C848C96F00E831405
:10107C00016E0150F00A04E075EC02F00001CF871C
:10108C0031D00001010EC26F5ED0020EC26F5BD078
:10109C00030EC26F58D0040EC26F55D0050EC26F2E
:1010AC0052D0060EC26F4FD0070EC26F4CD0080E36
:1010BC00C26F49D0090EC26F46D00A0EC26F43D020
:1010CC000B0EC26F40D00C0EC26F3DD00D0EC26F16
:1010DC003AD00E0EC26F37D00F0EC26F34D0100E36
:1010EC00C26F31D00001CF51E10ACBE0CF51E20AFF
:1010FC00CCE0CF51E40ACCE0CF51E80ACCE0CF51A0
:10110C00D10ACCE0CF51D20ACCE0CF51D40ACCE0FA
:10111C00CF51D80ACCE0CF51B10ACCE0CF51B20AB2
:10112C00CCE0CF51B40ACCE0CF51B80ACCE0CF51CF
:10113C00710ACCE0CF51720ACCE0CF51740ACCE0EA
:0A114C00CF51780ACCE0CF6B1200FF
:10115600286A296A87DC010E0001FD6F37EC00F072
:10116600010EF56F070EF66F850EF76F000EF86F1E
:06117600BBDCC26B12009D
:10117C00286A296A010E0001FD6F37EC00F06FDC64
:10118C0067C000F068C001F069C002F06AC003F0EB
:10119C00DFEC01F000C0F5F06EDC020E0001F56F23
:1011AC00010EF66F6B0EF76F000EF86F9ADC020EE5
:1011BC00F56F0E0EF66F5D0EF76F000EF86F91DC8B
:1011CC00010EF56F070EF66F610EF76F000EF86FDC
:0611DC0088DCC26B12006A
:1011E200010E0001FD6F37EC00F02A50000A22E1E7
:1011F200B8C000F0B9C001F0640E046E000E056EB6
:10120200A9EC01F000C0F1F001C0F2F0BAC000F0A8
:10121200BBC001F00A0E046E000E056EA9EC01F0CF
:101222000050F125286E0150F221296EBC5128266A
:10123200BD512922800E006E800E2918005C02E149
:10124200285064081AE2640E286E000E296E010E00
:10125200F56F010EF66F360EF76F000EF86F46DC73
:101262000D0E0B6EAF0E0C6EB60E0D6E0D2EFED762
:101272000C2EFCD70B2EFAD70000010EFD6F37ECB7
:1012820000F028C0F5F029C0F6F0C30EF76F000E8B
:10129200F86F2CEC02F0010EF56FF66BC30EF76FD0
:1012A200000EF86F23DC020EF56F010EF66F2B0EA7
:1012B200F76F000EF86F1ADC020EF56F0E0EF66F66
:1012C200320EF76F000EF86F11DC010EF56F070E8C
:1012D200F66F8D0EF76F000EF86F08DCD56BD051EC
:1012E200D55D11E2D5C000F0000E016E003600900F
:1012F2000136B80E0024E16E000E0120E26EE66AAD
:0C130200E66AD52BECD7D06BC26B120052
:10130E00010E0001FD6F37EC00F067C000F068C001
:10131E0001F069C002F06AC003F0DFEC01F000C01A
:10132E00F5F041EC05F0020E0001F56F010EF66FBF
:10133E00990EF76F000EF86F77EC05F0020EF56F51
:10134E000E0EF66FA00EF76F000EF86F77EC05F02D
:10135E00010EF56F070EF66FA60EF76F000EF86F03
:08136E0077EC05F0C26B1200E0
:10137600AECF01F0ABA202D0AB98AB8801C000F0B3
:02138600120053
:101388000001F46BF1C0E9FFF2C0EAFFEECFF3F021
:10139800F351000A0FE0F3C0F5F03AEC05F0000154
:1013A800F42BF451F125E96E000EF221EA6EEECF2E
:0613B800F3F0EED7120075
:0813BE00BE6ABD98BD9A120041
:1013C6004BEC0DF00F0EC16EF00E956E0F0E8C6E7F
:1013D600926A966A89929494949C948E93928A9235
:1013E6009380F28EF28CD08E9D8A9F9A9E9AD59C7F
:1013F600D596F184D59AD580D592D594B00ED66E71
:101406003C0ED76EF294F292F28AF18CF288D58E67
:101416002A6A286A296A5CDDB886020EB06E080E52
:10142600AF6EAC8429DDCA80CA92410ECB6EC4DF92
:1014360035EC05F051DD010EFD6F37EC00F00C0EBA
:10144600FD6F37EC00F0020EF56F010EF66F560ECB
:10145600F76F000EF86F77EC05F0020EF56F0E0EC3
:10146600F66F520EF76F000EF86F77EC05F0010E6F
:10147600F56F070EF66F480EF76F000EF86F77ECF4
:1014860005F067C000F068C001F069C002F06AC0EC
:1014960003F0DFEC01F000C0F5F041EC05F046C0CA
:1014A600F5F047C0F6F0C90E0001F76F000EF86FB1
:1014B6002CEC02F0800E4F18006E800E005C02E1EC
:1014C600010E4E5C10E3C90EF16F000EF26F59DF8C
:1014D600410E0C6EEE0E0D6E0D2EFED70C2EFCD7A9
:1014E60000004E6A4F6A800EA519006E800E005CE1
:1014F60002E10A0EA45D0CE3020EF56F080EF66F0C
:10150600C90EF76F000EF86F77EC05F0A46BA56BAC
:101516002A50000A01E187DDC251000A31E0C251BA
:101526000A0A2EE0C2510B0A2BE0C2510C0A28E02F
:10153600C2510D0A25E0C2510E0A22E0C2510F0A1D
:101546001FE0C251100A1CE0DF51010A19E1D0C0A8
:1015560000F0000E016E003600900136B80E002431
:10156600E16E000E0120E26EC2C0E6FF000EE66EDE
:10157600D02BD051030802E2030ED06F18DDC26BE8
:10158600C2510A0A0AE1DE51010A07E1010EDF6FC4
:10159600010EFD6F37EC00F00ADDC2510B0A18E1AF
:1015A600DF51010A15E1D007000ED05DD8A0D06B3F
:1015B600D0C000F0000E016E003600900136B80E65
:1015C6000024E16E000E0120E26EE66AE66AEFDCB8
:1015D600C2510C0A05E1DF51010A02E1FFDDDF6BB2
:1015E600C2510D0A05E1DF51010A01E18DDEDF6B13
:1015F600C2510E0A0AE1DF51010A07E1D02BD05190
:10160600030802E2030ED06FC26BC2510F0A04E157
:10161600B2DD010EDE6FDF6BC251100A19E198DDF3
:10162600DE6BDF6BD56BD051D55D11E2D5C000F016
:10163600000E016E003600900136B80E0024E16EF1
:10164600000E0120E26EE66AE66AD52BECD7D06B77
:0416560018D7FFD7CB
:10165A0000C025F001C024F002C023F003C022F02C
:10166A0004C021F005C020F008C01FF009C01EF018
:10167A000AC01DF00BC01CF00CC01BF00DC01AF004
:10168A00F3CF26F0F4CF27F0F2A458D1F294B00E9B
:10169A00D66E3C0ED76E0001A44BA52B4E4A4F2A9C
:1016AA00504A512A44C000F045C001F022EC06F02D
:1016BA00BA0E046E490E056E0C0E066E7D0E076E8E
:1016CA0042EC06F0B8EC05F000C046F001C047F065
:1016DA00446A456A0050285C006E01502958016E20
:1016EA0022EC06F000C07AF001C07BF002C07CF068
:1016FA0003C07DF00A0E046ED70E056E230E066E29
:10170A007A0E076E42EC06F081C004F082C005F042
:10171A0083C006F084C007F0E6EC02F000C081F056
:10172A0001C082F002C083F003C084F0000E046E90
:10173A00000E056E480E066E850E076ED8EC06F092
:10174A00000ED8B0010E006E005208E0000E816F44
:10175A00000E826F480E836F850E846F81C004F07D
:10176A0082C005F083C006F084C007F0000E006E48
:10177A00000E016EC80E026E850E036ED8EC06F0DE
:10178A00000ED8B0010E006E005208E0000E816F04
:10179A00000E826FC80E836F850E846F76C004F0C8
:1017AA0077C005F078C006F079C007F07AC000F07B
:1017BA007BC001F07CC002F07DC003F0D5EC06F0DE
:1017CA00000E046E000E056E480E066E830E076E3E
:1017DA0042EC06F000C002F101C003F102C004F1BC
:1017EA0003C005F102C172F003C173F004C174F0C1
:1017FA0005C175F07AC000F07BC001F07CC002F030
:10180A007DC003F0ACC004F0ADC005F0AEC006F078
:10181A00AFC007F042EC06F067C004F068C005F0FC
:10182A0069C006F06AC007F0E6EC02F000C0FEF0FC
:10183A0001C0FFF002C000F103C001F181C000F055
:10184A0082C001F083C002F084C003F0B0C004F08B
:10185A00B1C005F0B2C006F0B3C007F042EC06F022
:10186A00FEC004F0FFC005F000C106F001C107F098
:10187A00E6EC02F000C0FEF001C0FFF002C000F189
:10188A0003C001F102C100F003C101F004C102F07A
:10189A0005C103F0B4C004F0B5C005F0B6C006F047
:1018AA00B7C007F042EC06F0FEC004F0FFC005F036
:1018BA0000C106F001C107F0E6EC02F000C067F0D3
:1018CA0001C068F002C069F003C06AF0000E046E3D
:1018DA00000E056E7F0E066E860E076ED8EC06F0B9
:1018EA00000ED8B0010E006E005208E0000E676EBE
:1018FA00000E686E7F0E696E860E6A6E67C004F00F
:10190A0068C005F069C006F06AC007F0006A016A9B
:10191A00026A036AD8EC06F0000ED8B0010E006E17
:10192A00005204E0676A686A696A6A6A7AC076F08D
:10193A007BC077F07CC078F07DC079F0F2A203D04A
:10194A00444A452AF29226C0F3FF27C0F4FF25C075
:10195A0000F024C001F023C002F022C003F021C02D
:10196A0004F020C005F01FC008F01EC009F01DC019
:10197A000AF01CC00BF01BC00CF01AC00DF01100CD
:10198A0000C019F001C018F0156ED8CF16F0E0CFDC
:10199A0017F09EAA28D09E9AE9DC00C080F015D0E4
:1019AA000F0E0001C26F1FD0100EC26F1CD0010EA5
:1019BA002A6E19D02A6A17D080C028F0000E296E24
:1019CA00010EDF6F0C0EC26F0ED000018051FF0AAC
:1019DA00E7E08051FE0AE8E08051FD0AE8E0805124
:1019EA00FC0AE8E0E9D71750E06E1650D86E153AAF
:0C19FA00153819C000F018C001F01000F2
:101A960010EE28F0560E006E010E016E060EF66E62
:101AA6001A0EF76E000EF86ED2EC07F010EE81F00B
:101AB600180E006E010E016E5C0EF66E1A0EF76EB3
:101AC600000EF86ED2EC07F010EE7EF0020E006EFD
:101AD600010E016E930EF66E1A0EF76E000EF86E7C
:101AE600D2EC07F010EE99F0130E006E010E016EA7
:101AF600740EF66E1A0EF76E000EF86ED2EC07F044
:101B060010EE80F0010E006E010E016E950EF66E5F
:101B16001A0EF76E000EF86ED2EC07F010EEACF06F
:101B26000C0E006E010E016E870EF66E1A0EF76E23
:0A1B3600000EF86ED2EC07F012006A
:021A06000000DE
:011A080000DD
:071A0900546F63646F3A00A3
:041A10004D2F7000E6
:0E1A1400544F49204441203130304D2F5000B6
:021A22000000C2
:021A24000000C0
:061A26005354415254002C
:021A2C000000B8
:021A2E000000B6
:041A30004D2F5000E6
:071A3400546F63646F3A0078
:041A3B004D2F5000DB
:061A3F0053455455500010
:041A4500000000009D
:071A4900546F63646F3A0063
:041A50000000000092
:041A5400000000008E
:041A5800000000008A
:041A5C000000000086
:081A600053544F50504544005F
:061A6800534554555000E7
:061A6E004E4841503A0011
:071A7400546F63646F3A0038
:041A7B004D2F50009B
:021A7F00000065
:061A8100534554555000CE
:041A87008FC275791C
:041A8B00CDCC4C7BF7
:041A8F006F1203755A
:021A9300000051
:011A95000050
:020000040030CA
:0D000100021F1EFF8381FF0FC00FE00F40A4
:00000001FF
